{
  "contractName": "Counter",
  "abi": [
    {
      "inputs": [],
      "stateMutability": "nonpayable",
      "type": "constructor"
    },
    {
      "inputs": [],
      "name": "getCount",
      "outputs": [
        {
          "internalType": "uint256",
          "name": "",
          "type": "uint256"
        }
      ],
      "stateMutability": "view",
      "type": "function",
      "constant": true
    },
    {
      "inputs": [],
      "name": "increment",
      "outputs": [],
      "stateMutability": "nonpayable",
      "type": "function"
    },
    {
      "inputs": [],
      "name": "decrement",
      "outputs": [],
      "stateMutability": "nonpayable",
      "type": "function"
    }
  ],
  "bytecode": "0x608060405234801561001057600080fd5b5060008081905550610274806100276000396000f3fe608060405234801561001057600080fd5b50600436106100415760003560e01c80632baeceb714610046578063a87d942c14610050578063d09de08a1461006e575b600080fd5b61004e610078565b005b6100586100d5565b6040516100659190610166565b60405180910390f35b6100766100de565b005b60008054116100bc576040517f08c379a00000000000000000000000000000000000000000000000000000000081526004016100b390610146565b60405180910390fd5b6000808154809291906100ce9061019c565b9190505550565b60008054905090565b6000808154809291906100f0906101c6565b9190505550565b6000610104601883610181565b91507f436f756e742063616e6e6f74206265206e6567617469766500000000000000006000830152602082019050919050565b61014081610192565b82525050565b6000602082019050818103600083015261015f816100f7565b9050919050565b600060208201905061017b6000830184610137565b92915050565b600082825260208201905092915050565b6000819050919050565b60006101a782610192565b915060008214156101bb576101ba61020f565b5b600182039050919050565b60006101d182610192565b91507fffffffffffffffffffffffffffffffffffffffffffffffffffffffffffffffff8214156102045761020361020f565b5b600182019050919050565b7f4e487b7100000000000000000000000000000000000000000000000000000000600052601160045260246000fdfea26469706673582212207c5985039f8f7d40482e0773c6f4611ab49c023dae80f299c633ba4349319ecf64736f6c63430008000033",
  "immutableReferences": {},
  "source": "// SPDX-License-Identifier: MIT\r\npragma solidity ^0.8.0;\r\n\r\ncontract Counter {\r\n    uint256 private count;\r\n\r\n    // Constructor to initialize count\r\n    constructor() {\r\n        count = 0;\r\n    }\r\n\r\n    // Function to get the current count\r\n    function getCount() public view returns (uint256) {\r\n        return count;\r\n    }\r\n\r\n    // Function to increment the count\r\n    function increment() public {\r\n        count++;\r\n    }\r\n\r\n    // Function to decrement the count\r\n    function decrement() public {\r\n        require(count > 0, \"Count cannot be negative\");\r\n        count--;\r\n    }\r\n}\r\n",
  "sourcePath": "C:\\Users\\pandi\\ethereum_pandikumar_K\\contracts\\Counter.sol",
  "compiler": {
    "name": "solc",
    "version": "0.8.0+commit.c7dfd78e.Emscripten.clang"
  },
  "schemaVersion": "3.4.16",
  "updatedAt": "2024-09-29T17:37:57.628Z",
  "networkType": "ethereum",
  "devdoc": {
    "kind": "dev",
    "methods": {},
    "version": 1
  },
  "userdoc": {
    "kind": "user",
    "methods": {},
    "version": 1
  }
}